{
  "contractName": "ItemManager",
  "abi": [
    {
      "anonymous": false,
      "inputs": [
        {
          "indexed": true,
          "internalType": "address",
          "name": "previousOwner",
          "type": "address"
        },
        {
          "indexed": true,
          "internalType": "address",
          "name": "newOwner",
          "type": "address"
        }
      ],
      "name": "OwnershipTransferred",
      "type": "event"
    },
    {
      "anonymous": false,
      "inputs": [
        {
          "indexed": false,
          "internalType": "uint256",
          "name": "_itemIndex",
          "type": "uint256"
        },
        {
          "indexed": false,
          "internalType": "uint256",
          "name": "_step",
          "type": "uint256"
        },
        {
          "indexed": false,
          "internalType": "address",
          "name": "_itemAddress",
          "type": "address"
        }
      ],
      "name": "SupplyChainStep",
      "type": "event"
    },
    {
      "inputs": [
        {
          "internalType": "uint256",
          "name": "",
          "type": "uint256"
        }
      ],
      "name": "items",
      "outputs": [
        {
          "internalType": "contract Item",
          "name": "_item",
          "type": "address"
        },
        {
          "internalType": "string",
          "name": "_identifier",
          "type": "string"
        },
        {
          "internalType": "uint256",
          "name": "_itemPrice",
          "type": "uint256"
        },
        {
          "internalType": "enum ItemManager.SupplyChainState",
          "name": "_state",
          "type": "uint8"
        }
      ],
      "stateMutability": "view",
      "type": "function",
      "constant": true
    },
    {
      "inputs": [],
      "name": "owner",
      "outputs": [
        {
          "internalType": "address",
          "name": "",
          "type": "address"
        }
      ],
      "stateMutability": "view",
      "type": "function",
      "constant": true
    },
    {
      "inputs": [],
      "name": "renounceOwnership",
      "outputs": [],
      "stateMutability": "nonpayable",
      "type": "function"
    },
    {
      "inputs": [
        {
          "internalType": "address",
          "name": "newOwner",
          "type": "address"
        }
      ],
      "name": "transferOwnership",
      "outputs": [],
      "stateMutability": "nonpayable",
      "type": "function"
    },
    {
      "inputs": [
        {
          "internalType": "string",
          "name": "_identifier",
          "type": "string"
        },
        {
          "internalType": "uint256",
          "name": "_price",
          "type": "uint256"
        }
      ],
      "name": "createItem",
      "outputs": [],
      "stateMutability": "nonpayable",
      "type": "function"
    },
    {
      "inputs": [
        {
          "internalType": "uint256",
          "name": "_itemIndex",
          "type": "uint256"
        }
      ],
      "name": "triggerPayment",
      "outputs": [],
      "stateMutability": "payable",
      "type": "function",
      "payable": true
    },
    {
      "inputs": [
        {
          "internalType": "uint256",
          "name": "_itemIndex",
          "type": "uint256"
        }
      ],
      "name": "triggerDelivery",
      "outputs": [],
      "stateMutability": "nonpayable",
      "type": "function"
    }
  ],
  "bytecode": "0x608060405234801561001057600080fd5b5061002d61002261003260201b60201c565b61003a60201b60201c565b6100fe565b600033905090565b60008060009054906101000a900473ffffffffffffffffffffffffffffffffffffffff169050816000806101000a81548173ffffffffffffffffffffffffffffffffffffffff021916908373ffffffffffffffffffffffffffffffffffffffff1602179055508173ffffffffffffffffffffffffffffffffffffffff168173ffffffffffffffffffffffffffffffffffffffff167f8be0079c531659141344cd1fd0a4f28419497f9722a3daafe3b4186f6b6457e060405160405180910390a35050565b611ca48061010d6000396000f3fe6080604052600436106200007a5760003560e01c80638da5cb5b11620000555780638da5cb5b14620000e7578063bfb231d21462000117578063cd31831e146200015e578063f2fde38b146200018c576200007a565b8063715018a6146200007f578063800fb83f14620000995780638c55174214620000b9575b600080fd5b3480156200008c57600080fd5b5062000097620001ba565b005b620000b76004803603810190620000b1919062000ea9565b6200024b565b005b348015620000c657600080fd5b50620000e56004803603810190620000df919062000e4f565b620004ba565b005b348015620000f457600080fd5b50620000ff62000747565b6040516200010e919062001099565b60405180910390f35b3480156200012457600080fd5b506200014360048036038101906200013d919062000ea9565b62000770565b604051620001559493929190620010f3565b60405180910390f35b3480156200016b57600080fd5b506200018a600480360381019062000184919062000ea9565b6200085d565b005b3480156200019957600080fd5b50620001b86004803603810190620001b2919062000e23565b62000af5565b005b620001c462000bf9565b73ffffffffffffffffffffffffffffffffffffffff16620001e462000747565b73ffffffffffffffffffffffffffffffffffffffff16146200023d576040517f08c379a000000000000000000000000000000000000000000000000000000000815260040162000234906200118b565b60405180910390fd5b62000249600062000c01565b565b34600160008381526020019081526020016000206002015414620002a6576040517f08c379a00000000000000000000000000000000000000000000000000000000081526004016200029d9062001169565b60405180910390fd5b60006002811115620002e1577f4e487b7100000000000000000000000000000000000000000000000000000000600052602160045260246000fd5b6001600083815260200190815260200160002060030160009054906101000a900460ff1660028111156200033e577f4e487b7100000000000000000000000000000000000000000000000000000000600052602160045260246000fd5b1462000381576040517f08c379a00000000000000000000000000000000000000000000000000000000081526004016200037890620011ad565b60405180910390fd5b600180600083815260200190815260200160002060030160006101000a81548160ff02191690836002811115620003e1577f4e487b7100000000000000000000000000000000000000000000000000000000600052602160045260246000fd5b02179055507fa4035636e99f06b7651a604c1019fa4e8779fe68ef27eeb74dff2de348f6199b6002546001600084815260200190815260200160002060030160009054906101000a900460ff16600281111562000467577f4e487b7100000000000000000000000000000000000000000000000000000000600052602160045260246000fd5b6001600085815260200190815260200160002060000160009054906101000a900473ffffffffffffffffffffffffffffffffffffffff16604051620004af93929190620011cf565b60405180910390a150565b620004c462000bf9565b73ffffffffffffffffffffffffffffffffffffffff16620004e462000747565b73ffffffffffffffffffffffffffffffffffffffff16146200053d576040517f08c379a000000000000000000000000000000000000000000000000000000000815260040162000534906200118b565b60405180910390fd5b60003082600254604051620005529062000cc5565b6200056093929190620010b6565b604051809103906000f0801580156200057d573d6000803e3d6000fd5b5090508060016000600254815260200190815260200160002060000160006101000a81548173ffffffffffffffffffffffffffffffffffffffff021916908373ffffffffffffffffffffffffffffffffffffffff1602179055508260016000600254815260200190815260200160002060010190805190602001906200060592919062000cd3565b508160016000600254815260200190815260200160002060020181905550600060016000600254815260200190815260200160002060030160006101000a81548160ff0219169083600281111562000686577f4e487b7100000000000000000000000000000000000000000000000000000000600052602160045260246000fd5b02179055507fa4035636e99f06b7651a604c1019fa4e8779fe68ef27eeb74dff2de348f6199b60025460016000600254815260200190815260200160002060030160009054906101000a900460ff1660028111156200070e577f4e487b7100000000000000000000000000000000000000000000000000000000600052602160045260246000fd5b306040516200072093929190620011cf565b60405180910390a1600260008154809291906200073d90620013c1565b9190505550505050565b60008060009054906101000a900473ffffffffffffffffffffffffffffffffffffffff16905090565b60016020528060005260406000206000915090508060000160009054906101000a900473ffffffffffffffffffffffffffffffffffffffff1690806001018054620007bb906200138b565b80601f0160208091040260200160405190810160405280929190818152602001828054620007e9906200138b565b80156200083a5780601f106200080e576101008083540402835291602001916200083a565b820191906000526020600020905b8154815290600101906020018083116200081c57829003601f168201915b5050505050908060020154908060030160009054906101000a900460ff16905084565b6200086762000bf9565b73ffffffffffffffffffffffffffffffffffffffff166200088762000747565b73ffffffffffffffffffffffffffffffffffffffff1614620008e0576040517f08c379a0000000000000000000000000000000000000000000000000000000008152600401620008d7906200118b565b60405180910390fd5b600160028111156200091b577f4e487b7100000000000000000000000000000000000000000000000000000000600052602160045260246000fd5b6001600083815260200190815260200160002060030160009054906101000a900460ff16600281111562000978577f4e487b7100000000000000000000000000000000000000000000000000000000600052602160045260246000fd5b14620009bb576040517f08c379a0000000000000000000000000000000000000000000000000000000008152600401620009b290620011ad565b60405180910390fd5b60026001600083815260200190815260200160002060030160006101000a81548160ff0219169083600281111562000a1c577f4e487b7100000000000000000000000000000000000000000000000000000000600052602160045260246000fd5b02179055507fa4035636e99f06b7651a604c1019fa4e8779fe68ef27eeb74dff2de348f6199b6002546001600084815260200190815260200160002060030160009054906101000a900460ff16600281111562000aa2577f4e487b7100000000000000000000000000000000000000000000000000000000600052602160045260246000fd5b6001600085815260200190815260200160002060000160009054906101000a900473ffffffffffffffffffffffffffffffffffffffff1660405162000aea93929190620011cf565b60405180910390a150565b62000aff62000bf9565b73ffffffffffffffffffffffffffffffffffffffff1662000b1f62000747565b73ffffffffffffffffffffffffffffffffffffffff161462000b78576040517f08c379a000000000000000000000000000000000000000000000000000000000815260040162000b6f906200118b565b60405180910390fd5b600073ffffffffffffffffffffffffffffffffffffffff168173ffffffffffffffffffffffffffffffffffffffff16141562000beb576040517f08c379a000000000000000000000000000000000000000000000000000000000815260040162000be29062001147565b60405180910390fd5b62000bf68162000c01565b50565b600033905090565b60008060009054906101000a900473ffffffffffffffffffffffffffffffffffffffff169050816000806101000a81548173ffffffffffffffffffffffffffffffffffffffff021916908373ffffffffffffffffffffffffffffffffffffffff1602179055508173ffffffffffffffffffffffffffffffffffffffff168173ffffffffffffffffffffffffffffffffffffffff167f8be0079c531659141344cd1fd0a4f28419497f9722a3daafe3b4186f6b6457e060405160405180910390a35050565b610747806200152883390190565b82805462000ce1906200138b565b90600052602060002090601f01602090048101928262000d05576000855562000d51565b82601f1062000d2057805160ff191683800117855562000d51565b8280016001018555821562000d51579182015b8281111562000d5057825182559160200191906001019062000d33565b5b50905062000d60919062000d64565b5090565b5b8082111562000d7f57600081600090555060010162000d65565b5090565b600062000d9a62000d948462001240565b6200120c565b90508281526020810184848401111562000db357600080fd5b62000dc084828562001346565b509392505050565b60008135905062000dd981620014f3565b92915050565b600082601f83011262000df157600080fd5b813562000e0384826020860162000d83565b91505092915050565b60008135905062000e1d816200150d565b92915050565b60006020828403121562000e3657600080fd5b600062000e468482850162000dc8565b91505092915050565b6000806040838503121562000e6357600080fd5b600083013567ffffffffffffffff81111562000e7e57600080fd5b62000e8c8582860162000ddf565b925050602062000e9f8582860162000e0c565b9150509250929050565b60006020828403121562000ebc57600080fd5b600062000ecc8482850162000e0c565b91505092915050565b62000ee0816200128f565b82525050565b62000ef181620012e2565b82525050565b62000f02816200130a565b82525050565b62000f138162001332565b82525050565b600062000f268262001273565b62000f3281856200127e565b935062000f4481856020860162001355565b62000f4f81620014cb565b840191505092915050565b600062000f696026836200127e565b91507f4f776e61626c653a206e6577206f776e657220697320746865207a65726f206160008301527f64647265737300000000000000000000000000000000000000000000000000006020830152604082019050919050565b600062000fd1601b836200127e565b91507f4f6e6c792066756c6c207061796d656e747320616363657074656400000000006000830152602082019050919050565b6000620010136020836200127e565b91507f4f776e61626c653a2063616c6c6572206973206e6f7420746865206f776e65726000830152602082019050919050565b600062001055601a836200127e565b91507f4974656d20686173206265656e20616c726561647920706169640000000000006000830152602082019050919050565b6200109381620012d8565b82525050565b6000602082019050620010b0600083018462000ed5565b92915050565b6000606082019050620010cd600083018662000ee6565b620010dc602083018562001088565b620010eb604083018462001088565b949350505050565b60006080820190506200110a600083018762000ef7565b81810360208301526200111e818662000f19565b90506200112f604083018562001088565b6200113e606083018462000f08565b95945050505050565b60006020820190508181036000830152620011628162000f5a565b9050919050565b60006020820190508181036000830152620011848162000fc2565b9050919050565b60006020820190508181036000830152620011a68162001004565b9050919050565b60006020820190508181036000830152620011c88162001046565b9050919050565b6000606082019050620011e6600083018662001088565b620011f5602083018562001088565b62001204604083018462000ed5565b949350505050565b6000604051905081810181811067ffffffffffffffff821117156200123657620012356200149c565b5b8060405250919050565b600067ffffffffffffffff8211156200125e576200125d6200149c565b5b601f19601f8301169050602081019050919050565b600081519050919050565b600082825260208201905092915050565b60006200129c82620012b8565b9050919050565b6000819050620012b382620014dc565b919050565b600073ffffffffffffffffffffffffffffffffffffffff82169050919050565b6000819050919050565b6000620012ef82620012f6565b9050919050565b60006200130382620012b8565b9050919050565b600062001317826200131e565b9050919050565b60006200132b82620012b8565b9050919050565b60006200133f82620012a3565b9050919050565b82818337600083830152505050565b60005b838110156200137557808201518184015260208101905062001358565b8381111562001385576000848401525b50505050565b60006002820490506001821680620013a457607f821691505b60208210811415620013bb57620013ba6200146d565b5b50919050565b6000620013ce82620012d8565b91507fffffffffffffffffffffffffffffffffffffffffffffffffffffffffffffffff8214156200140457620014036200140f565b5b600182019050919050565b7f4e487b7100000000000000000000000000000000000000000000000000000000600052601160045260246000fd5b7f4e487b7100000000000000000000000000000000000000000000000000000000600052602160045260246000fd5b7f4e487b7100000000000000000000000000000000000000000000000000000000600052602260045260246000fd5b7f4e487b7100000000000000000000000000000000000000000000000000000000600052604160045260246000fd5b6000601f19601f8301169050919050565b60038110620014f057620014ef6200143e565b5b50565b620014fe816200128f565b81146200150a57600080fd5b50565b6200151881620012d8565b81146200152457600080fd5b5056fe608060405234801561001057600080fd5b50604051610747380380610747833981810160405281019061003291906100b3565b816000819055508060028190555082600360006101000a81548173ffffffffffffffffffffffffffffffffffffffff021916908373ffffffffffffffffffffffffffffffffffffffff16021790555050505061017e565b60008151905061009881610150565b92915050565b6000815190506100ad81610167565b92915050565b6000806000606084860312156100c857600080fd5b60006100d686828701610089565b93505060206100e78682870161009e565b92505060406100f88682870161009e565b9150509250925092565b600061010d82610126565b9050919050565b600061011f82610102565b9050919050565b600073ffffffffffffffffffffffffffffffffffffffff82169050919050565b6000819050919050565b61015981610114565b811461016457600080fd5b50565b61017081610146565b811461017b57600080fd5b50565b6105ba8061018d6000396000f3fe6080604052600436106100385760003560e01c80632986c0e5146102505780633c8da5881461027b57806389794d00146102a657610241565b3661024157600060015414610082576040517f08c379a000000000000000000000000000000000000000000000000000000000815260040161007990610460565b60405180910390fd5b34600054146100c6576040517f08c379a00000000000000000000000000000000000000000000000000000000081526004016100bd90610440565b60405180910390fd5b34600160008282546100d891906104c2565b925050819055506000600360009054906101000a900473ffffffffffffffffffffffffffffffffffffffff1673ffffffffffffffffffffffffffffffffffffffff163460025460405160240161012e9190610480565b6040516020818303038152906040527f800fb83f000000000000000000000000000000000000000000000000000000007bffffffffffffffffffffffffffffffffffffffffffffffffffffffff19166020820180517bffffffffffffffffffffffffffffffffffffffffffffffffffffffff83818316178352505050506040516101b89190610409565b60006040518083038185875af1925050503d80600081146101f5576040519150601f19603f3d011682016040523d82523d6000602084013e6101fa565b606091505b505090508061023e576040517f08c379a000000000000000000000000000000000000000000000000000000000815260040161023590610420565b60405180910390fd5b50005b34801561024d57600080fd5b50005b34801561025c57600080fd5b506102656102d1565b6040516102729190610480565b60405180910390f35b34801561028757600080fd5b506102906102d7565b60405161029d9190610480565b60405180910390f35b3480156102b257600080fd5b506102bb6102dd565b6040516102c89190610480565b60405180910390f35b60025481565b60005481565b60015481565b60006102ee8261049b565b6102f881856104a6565b9350610308818560208601610522565b80840191505092915050565b6000610321602d836104b1565b91507f746865207472616e73616374696f6e20776173206e6f7420737563636573736660008301527f756c2063616e63656c6c696e67000000000000000000000000000000000000006020830152604082019050919050565b6000610387601a836104b1565b91507f4f6e6c792066756c6c20706179656d6e747320616c6c6f7765640000000000006000830152602082019050919050565b60006103c76014836104b1565b91507f4974656d206973205069616420616c72656164790000000000000000000000006000830152602082019050919050565b61040381610518565b82525050565b600061041582846102e3565b915081905092915050565b6000602082019050818103600083015261043981610314565b9050919050565b600060208201905081810360008301526104598161037a565b9050919050565b60006020820190508181036000830152610479816103ba565b9050919050565b600060208201905061049560008301846103fa565b92915050565b600081519050919050565b600081905092915050565b600082825260208201905092915050565b60006104cd82610518565b91506104d883610518565b9250827fffffffffffffffffffffffffffffffffffffffffffffffffffffffffffffffff0382111561050d5761050c610555565b5b828201905092915050565b6000819050919050565b60005b83811015610540578082015181840152602081019050610525565b8381111561054f576000848401525b50505050565b7f4e487b7100000000000000000000000000000000000000000000000000000000600052601160045260246000fdfea2646970667358221220a4048d7ee329a4eb4174cd7ef4d62f5f5ea1f11fb7656f4bf6c1f83a2bb0ad0a64736f6c63430008000033a2646970667358221220f8d9c940e06c7c32c7730f9cea6ddd17edcaacd68171ca25f85a77a1a2d5e61864736f6c63430008000033",
  "immutableReferences": {},
  "source": "// SPDX-License-Identifier: MIT\n\npragma solidity ^0.8.0;\n\nimport \"./Item.sol\";\n\nimport \"./Ownable.sol\";\n\ncontract ItemManager is Ownable{\n    mapping(uint => S_item) public items;\n\n    struct S_item {\n        Item _item;\n        string _identifier;\n        uint _itemPrice;\n        SupplyChainState _state;\n    }\n\n    event SupplyChainStep(uint _itemIndex, uint _step, address _itemAddress);\n\n    enum SupplyChainState{Created, Paid, Delivered}\n\n    uint itemIndex;\n\n    function createItem(string memory _identifier, uint _price) public onlyOwner {\n        Item item = new Item(this, _price, itemIndex);\n        items[itemIndex]._item = item;\n        items[itemIndex]._identifier = _identifier;\n        items[itemIndex]._itemPrice = _price;\n        items[itemIndex]._state = SupplyChainState.Created;\n        emit SupplyChainStep(itemIndex, uint(items[itemIndex]._state), address(this));\n        itemIndex++;\n    }\n\n    function triggerPayment(uint _itemIndex) public payable{\n        require(items[_itemIndex]._itemPrice == msg.value, \"Only full payments accepted\");\n        require(items[_itemIndex]._state == SupplyChainState.Created, \"Item has been already paid\");\n        items[_itemIndex]._state = SupplyChainState.Paid;\n        emit SupplyChainStep(itemIndex, uint(items[_itemIndex]._state), address(items[_itemIndex]._item));\n    }\n\n    function triggerDelivery(uint _itemIndex) public onlyOwner{\n        require(items[_itemIndex]._state == SupplyChainState.Paid, \"Item has been already paid\");\n        items[_itemIndex]._state = SupplyChainState.Delivered;\n        emit SupplyChainStep(itemIndex, uint(items[_itemIndex]._state), address(items[_itemIndex]._item));\n    }\n\n}",
  "sourcePath": "/home/ajit/personal/blockchain/project-4/contracts/ItemManger.sol",
  "compiler": {
    "name": "solc",
    "version": "0.8.0+commit.c7dfd78e.Emscripten.clang"
  },
  "schemaVersion": "3.4.4",
  "updatedAt": "2022-02-14T04:45:43.910Z",
  "networkType": "ethereum",
  "devdoc": {
    "kind": "dev",
    "methods": {
      "owner()": {
        "details": "Returns the address of the current owner."
      },
      "renounceOwnership()": {
        "details": "Leaves the contract without owner. It will not be possible to call `onlyOwner` functions anymore. Can only be called by the current owner. NOTE: Renouncing ownership will leave the contract without an owner, thereby removing any functionality that is only available to the owner."
      },
      "transferOwnership(address)": {
        "details": "Transfers ownership of the contract to a new account (`newOwner`). Can only be called by the current owner."
      }
    },
    "version": 1
  },
  "userdoc": {
    "kind": "user",
    "methods": {},
    "version": 1
  }
}